{
  "contractName": "Adoption",
  "abi": [
    {
      "inputs": [
        {
          "internalType": "uint256",
          "name": "petId",
          "type": "uint256"
        }
      ],
      "name": "adopt",
      "outputs": [
        {
          "internalType": "uint256",
          "name": "",
          "type": "uint256"
        }
      ],
      "stateMutability": "nonpayable",
      "type": "function"
    },
    {
      "inputs": [],
      "name": "getAdopters",
      "outputs": [
        {
          "internalType": "address[]",
          "name": "",
          "type": "address[]"
        }
      ],
      "stateMutability": "view",
      "type": "function",
      "constant": true
    },
    {
      "inputs": [],
      "name": "getPets",
      "outputs": [
        {
          "internalType": "uint256[]",
          "name": "",
          "type": "uint256[]"
        }
      ],
      "stateMutability": "view",
      "type": "function",
      "constant": true
    }
  ],
  "bytecode": "0x608060405234801561001057600080fd5b50610684806100206000396000f3fe608060405234801561001057600080fd5b50600436106100415760003560e01c80633de4eb17146100465780636d71ad38146100645780638588b2c514610082575b600080fd5b61004e6100b2565b60405161005b91906104d9565b60405180910390f35b61006c610140565b60405161007991906104fb565b60405180910390f35b61009c60048036038101906100979190610317565b610198565b6040516100a9919061055d565b60405180910390f35b6060600180548060200260200160405190810160405280929190818152602001828054801561013657602002820191906000526020600020905b8160009054906101000a900473ffffffffffffffffffffffffffffffffffffffff1673ffffffffffffffffffffffffffffffffffffffff16815260200190600101908083116100ec575b5050505050905090565b6060600280548060200260200160405190810160405280929190818152602001828054801561018e57602002820191906000526020600020905b81548152602001906001019080831161017a575b5050505050905090565b6000808210156101dd576040517f08c379a00000000000000000000000000000000000000000000000000000000081526004016101d49061051d565b60405180910390fd5b6000151560008084815260200190815260200160002060009054906101000a900460ff16151514610243576040517f08c379a000000000000000000000000000000000000000000000000000000000815260040161023a9061053d565b60405180910390fd5b600160008084815260200190815260200160002060006101000a81548160ff0219169083151502179055506001339080600181540180825580915050600190039060005260206000200160009091909190916101000a81548173ffffffffffffffffffffffffffffffffffffffff021916908373ffffffffffffffffffffffffffffffffffffffff1602179055506002829080600181540180825580915050600190039060005260206000200160009091909190915055819050919050565b60008135905061031181610637565b92915050565b60006020828403121561032957600080fd5b600061033784828501610302565b91505092915050565b600061034c8383610370565b60208301905092915050565b600061036483836104bb565b60208301905092915050565b610379816105fb565b82525050565b600061038a82610598565b61039481856105c8565b935061039f83610578565b8060005b838110156103d05781516103b78882610340565b97506103c2836105ae565b9250506001810190506103a3565b5085935050505092915050565b60006103e8826105a3565b6103f281856105d9565b93506103fd83610588565b8060005b8381101561042e5781516104158882610358565b9750610420836105bb565b925050600181019050610401565b5085935050505092915050565b60006104486019836105ea565b91507f49642063616e206e6f74206265206c657373207468616e2030000000000000006000830152602082019050919050565b60006104886017836105ea565b91507f5065742068617320616c72656164792061646f707465640000000000000000006000830152602082019050919050565b6104c48161062d565b82525050565b6104d38161062d565b82525050565b600060208201905081810360008301526104f3818461037f565b905092915050565b6000602082019050818103600083015261051581846103dd565b905092915050565b600060208201905081810360008301526105368161043b565b9050919050565b600060208201905081810360008301526105568161047b565b9050919050565b600060208201905061057260008301846104ca565b92915050565b6000819050602082019050919050565b6000819050602082019050919050565b600081519050919050565b600081519050919050565b6000602082019050919050565b6000602082019050919050565b600082825260208201905092915050565b600082825260208201905092915050565b600082825260208201905092915050565b60006106068261060d565b9050919050565b600073ffffffffffffffffffffffffffffffffffffffff82169050919050565b6000819050919050565b6106408161062d565b811461064b57600080fd5b5056fea2646970667358221220dd349ffdc379e84249306dbb704f02c927a08dbccb686460d88b2e7211dec9b564736f6c63430008000033",
  "immutableReferences": {},
  "source": "// SPDX-License-Identifier: MIT\r\npragma solidity ^0.8.0;\r\n\r\ncontract Adoption {\r\n    // struct Record {\r\n    //     address adopter;\r\n    //     uint petId;\r\n    // }\r\n\r\n    mapping(uint => bool) private adoptions;\r\n    address[] private adopters;\r\n    uint[] private pets;\r\n\r\n    // Adopting a pet\r\n    function adopt(uint petId) public returns (uint) {\r\n        require(petId >= 0, \"Id can not be less than 0\");\r\n        require(adoptions[petId] == false, \"Pet has already adopted\");\r\n\r\n        // adopters[petId] = msg.sender;\r\n        adoptions[petId] = true;\r\n\r\n        adopters.push(msg.sender);\r\n        pets.push(petId);\r\n\r\n        return petId;\r\n    }\r\n\r\n    // Retrieving the adopters\r\n    function getAdopters() public view returns (address[] memory) {\r\n        return adopters;\r\n    }\r\n\r\n    // Retrieving the adopted pets\r\n    function getPets() public view returns (uint[] memory) {\r\n        return pets;\r\n    }\r\n}",
  "sourcePath": "C:\\Users\\vtymos\\Desktop\\Truffle Practical\\contracts\\Adoption.sol",
  "compiler": {
    "name": "solc",
    "version": "0.8.0+commit.c7dfd78e.Emscripten.clang"
  },
  "schemaVersion": "3.4.16",
  "updatedAt": "2026-02-16T17:46:09.747Z",
  "networkType": "ethereum",
  "devdoc": {
    "kind": "dev",
    "methods": {},
    "version": 1
  },
  "userdoc": {
    "kind": "user",
    "methods": {},
    "version": 1
  }
}